:10080000007C0020110B00000F0B0000610B0000AA
:100810000F0B00000F0B00000F0B00000F0B000070
:100820000F0B00000F0B0000083300000F0B00003F
:100830000F0B00000F0B00000F0B00000F0B000050
:1008400010B5054C237833B9044B13B10448AFF30A
:1008500000800123237010BD24010020000000004F
:10086000B834000008B5034B1BB103490348AFF38C
:10087000008008BD0000000028010020B8340000FE
:100880000D4AD2F8943003F00703032B11D0042B48
:1008900003D0022B0BD1094B00E0094B1868D2F8AA
:1008A0000031C3F304230133B0FBF3F07047054B71
:1008B000F4E74FF40040F2E700400E400001002052
:1008C00008010020040100200E4B0F4A9A60D3F863
:1008D000882042F47002C3F888200C4B5A6D42F411
:1008E00000525A651A6C22F003021A64084A13680F
:1008F00023F00103136052F8143C23F0805342F8B4
:10090000143C704700ED00E00008000000300E408D
:1009100074300E40017901220431033001F062BDD0
:1009200001F0BABC00B5A3B002F03FFCB0F5027F05
:1009300016D188220021684602F0CAFCA0238DF857
:10094000033002238DF8043001238DF80630032391
:100950008DF8073068460B238DF80830FFF7DAFF73
:1009600088220021684602F0B3FCA0238DF80330F2
:1009700004238DF8043040F6280368461B689B6802
:10098000CDF80730FFF7C6FF23B05DF804FB000089
:1009900070B5ADF5267D8822002160A802F098FC94
:1009A00002238DF88431584B0FCB202404AD85E809
:1009B0000F00242200210DEB04008DF8834102F08A
:1009C00087FC234623AA11A982A801F0DDFE00249A
:1009D000882200213EA802F07BFC4FF47A7601F0D9
:1009E00037FD0028FBD001231946009603AA0DF11C
:1009F000FB0001F051FD9DF8FB30202BEFD10123CE
:100A0000009603AA03213FA801F046FD039B032B98
:100A1000DED19DF8FC6076B140F6B833009303AAAE
:100A2000012331460DF1FF0001F036FD039B9E428C
:100A3000CED10028CCD19DF8FD30002BC8D19DF837
:100A4000FE30032BC4D8DFE803F04C020D25012350
:100A50008DF886318DF887418DF8884160A8FFF7C1
:100A600059FFB5E79DF8FF30009540AA08A982A874
:100A700001F0C4FE02238DF886310028EAD041F24D
:100A800007039842E6D003238DF887310B238DF8B6
:100A90008831E3E703238DF886319DF82230CBB10E
:100AA0009DF82330B3B18DF887418DF8884160A857
:100AB000FFF730FF9DF82230002B89D09DF82330BE
:100AC000002B85D09DF82030002B81D040F20920EA
:100AD00002F036FB03238DF887310B238DF8883124
:100AE000E5E79DF822302BB19DF8233013B940F291
:100AF0000320EDE79DF8FF30012B0CBF40F20220F0
:100B000040F20120E4E700BFF83200007047FEE742
:100B100008B5FFF7D9FE00F08DF80A4A0A4B0B49D9
:100B20008B4206D30A4B0B4A0021934206D300F0B6
:100B30001DF852F8040F43F8040BF1E743F8041BC7
:100B4000F3E700BFB83400000001002024010020BA
:100B500024010020CC0300200020704700207047B3
:100B600008B54FF4017002F0EBFA00002B4B13B5FF
:100B700001225A642A4BDC6C01A8240E00F044FFC9
:100B80008E2C1CD82749D1F8B00040F00403C1F8DE
:100B9000B030254B4FF050121A601A631A66C3F832
:100BA0009020C3F8C020C3F8F020C1F8B0001D4A5F
:100BB000D36A23F07F0343F02003D36201E08F2C3C
:100BC000F5D99DF80530012B01BF184A136843F091
:100BD00004031360164B00221A60FFF7BDFF02F0FA
:100BE000A9FAFFF79DFEFFF79DFE18B14FF40170C3
:100BF00002F0A6FAFFF7CCFE0446FFF787FF1CB110
:100C000040F203739C4202D140F20120F0E7A4F2CB
:100C10000574012CEAD840F20320E9E700000E40F9
:100C2000B081E00F00400E4000A0004064310E4053
:100C3000B40AC64308B51C4B5B685B050FD400F0D3
:100C400051FF80F00100C0B244F204031B6801337D
:100C500014D14FF40270BDE8084002F064BA02F00B
:100C60008FFAA0F2022080B20728E8D8012303FA05
:100C700000F010F0C90FE2D00020E5E790B14FF48A
:100C8000804002F0C3F90028E3D0084A4FF48043C3
:100C900093601846016881F3088881F309884068E9
:100CA0008746FEE708BD00BF00500E4000ED00E0A3
:100CB0000020704710B50B4CD4F8B03043F020033F
:100CC000C4F8B030084B01241C6001449A605C6099
:100CD0001A46884201D1D86910BD10F8014B9461C1
:100CE000F7E700BF00400E4000C00140F8B50446E1
:100CF0001D4616460F4600F0A1FFDDE9061220460C
:100D000000F0A2FF0023636284F838703268C4F8F0
:100D100039207268C4F83D202B0CB26884F8453045
:100D20002B0AC4F8412084F8463084F84750F8BDB7
:100D300030B585B01D4600F12803CDE901120093BE
:100D400000F1240200F13803294600F09BFF05B0B2
:100D500030BD0000F0B50F46A3B01646044640B3C0
:100D600039B332B30121144800F0C6FC40220021FF
:100D700002A802F0ADFA01F083FA014602A800F0E1
:100D800011FB01F081FA12AD01460AA800F00AFB3E
:100D90003946284600F006FB31461AA800F002FB4F
:100DA000009502AB20222146044800F00BFB23B043
:100DB000F0BD40F20160FAE700150A0000000F40A4
:100DC00010B5044601F008FA20460021BDE81040A5
:100DD00001F02DBA01F035BA014601F034BA1C23F6
:100DE00050F8042F0AB9043BFAD1002BCCBF0020E5
:100DF0000120704730B50568046802680368C1E9DE
:100E00000054C1E902230568046802680368C1E967
:100E10000454C1E9062330BDD1E9022330B5D1E93C
:100E200000540560046002600360D1E90454D1E914
:100E30000623056004600260036030BD2DE9F041C7
:100E400004461D460E46904600211C22181D02F045
:100E50003FFA01232B6000F08DFC4146074604F564
:100E60008070FFF7D9FF314604F5827004F584766F
:100E7000FFF7D2FF29463046FFF7CEFF384600F095
:100E80007DFC0D4F0D4B0E4A0E490F4823656369DB
:100E9000DB010BD500F06EFC294604463046FFF717
:100EA000A9FF2046BDE8F04100F068BC22656165FD
:100EB000A065E765EBE700BF3938010039398401E7
:100EC000D02484FC1C82FED88B1C81A02DE9F04F1D
:100ED0008DB0044698460F46154600F04BFC04F5CD
:100EE000827607F14002114604F5867B8146304642
:100EF0000392FFF791FF29465846FFF78DFF04F54F
:100F00008873184605F120010293FFF785FF4846D4
:100F100000F034FC4249216542496165012542499E
:100F2000A165E56500F026FC04F5847907F1200A47
:100F3000019039463046FFF76FFF51464846FFF7AC
:100F40006BFF039A029B11461846FFF765FF019855
:100F500000F014FC354B2365354B6365A56500F047
:100F600009FC04F58073019008F1400118460293D2
:100F7000FFF740FF04A94846FFF73CFF019A1046DF
:100F800000F0FCFB00F0F6FB394601905846FFF7F5
:100F900043FF019A104600F0F1FB264A2265264ADB
:100FA00062656FF42673A2F5FE221A44A265E56518
:100FB00000F0E0FB514607463046FFF72DFF38466C
:100FC00000F0DCFB1D4A22651D4A6265A56500F044
:100FD000D1FB414607464846FFF70CFF384600F074
:100FE000CDFB00F0C7FB04A907463046FFF714FF0E
:100FF000384600F0C3FB134A2265134A6265A565B3
:1010000000F0B8FB029B044608F120011846FFF7E8
:10101000F1FE204600F0B2FB0DB0BDE8F08F00BF3E
:101020008AD11C81D91C83D11C81E11CD01482CBB4
:101030001481E11C8CE11C811C84D91CE014D8149F
:101040001482E11C84D31482D11CE0142DE9F041F8
:10105000044690B00F46244E0521904600F091FBC7
:1010600000232360236363630FCE08AD0FC596E8AA
:101070000F0085E80F0008AA6B4607F140012046E3
:10108000FFF7DCFE00F076FB04F586750646694640
:1010900004F58270FFF7C0FE39462846FFF7BCFE14
:1010A00007F1200104F58870FFF7B6FE304600F026
:1010B00065FB0E4B23650E4B63650E4BA365012349
:1010C000E36500F057FB08F12001064604F5807047
:1010D000FFF790FE41462846FFF78CFE304600F0B1
:1010E0004DFB10B0BDE8F081483300008AD11C816F
:1010F000D91C83D11C81E11C2DE9F04FA5B01D4600
:101100000446CDE9001205A81C22002102F0E0F8F7
:101110004FF0010820220021284605F12007CDF8D4
:10112000108005F1400A02F0D3F820220021384651
:1011300002F0CEF820220021504602F0C9F8052125
:10114000204600F01EFB00232360FF262363636319
:101150007211019806F01F0350F8222008FA03F3D9
:10116000134206F1FF3102D10E460029F0D100F002
:1011700001FB04F582733946804618460293FFF757
:101180004BFE404600F0FAFA7A4B7B4A23656265D3
:101190007A4AA26500F0EEFA04F5807914A9804637
:1011A0004846FFF727FE404600F0E8FA00F0E2FA72
:1011B000294680464846FFF72FFE404600F0DEFAFB
:1011C0006F4A704B22654FF486726365A26500F02A
:1011D000D1FA04F5867883460CA94046FFF70AFE4B
:1011E0001CA94846FFF706FE584600F0C7FA00F073
:1011F000C1FA029B0393514683461846FFF70CFE43
:10120000584600F0BBFA604B23650123636500F08C
:10121000B1FA04F5847B294602905846FFF7FCFD9D
:10122000029A104600F0AAFA584A226502F1D94201
:1012300002F5DE1202F595626265A2F586120123BF
:10124000A2F2BA42A265E36500F094FA1CA90290EA
:101250005846FFF7E1FD0CA94046FFF7DDFD029A75
:10126000104600F08BFA4A4A22654A4A62654A4AA9
:10127000A26500F07FFA2946029004F58870FFF716
:10128000B9FD029A104600F079FA00F073FA039B58
:10129000029039461846FFF7BFFD58465146FFF702
:1012A000BBFD14A94046FFF7B7FD029A104600F0B7
:1012B00065FA3A4B23653A4B636500F05BFA514699
:1012C00083464846FFF796FD39464046FFF792FDB4
:1012D000584600F053FA012106F01F0301FA03F308
:1012E0007211019951F82220134217D02B687BB953
:1012F0002846FFF774FD58B12B6A4BB93846FFF703
:101300006EFD28B12B6C1BB95046FFF768FD60B924
:101310002B46009A29462046FFF7D8FD16F1FF36E6
:10132000BFF425AF25B0BDE8F08F009BAC4603F1BC
:10133000200E18685968624603C208337345944604
:10134000F7D1BC4603F1200E18685968624603C203
:10135000083373459446F7D10DF1100EBEE80F0027
:1013600005F1400CACE80F009EE80F008CE80F0080
:10137000D4E700BF8AD11C81821CC00C0C0C010078
:10138000C00C0C83D91C83D88AD11C83DA0C81143D
:101390008CE11CD01484E31482D11C01D81483D1B5
:1013A0001CC00C0110B520220C46002101F090FF5A
:1013B00004F12002013812F8013D00F8013FA24279
:1013C000F9D110BD2DE9F04FBDB00446164600938B
:1013D000469D8A46002900F00781002B00F0048119
:1013E000002D00F00181002A40F3FE804FF000093B
:1013F000C0F80090C0F83090C0F83490436843F0D3
:10140000100343600C2100F0BCF96368DFF8F8C1F9
:1014100023F4406343F400636360636823F4407320
:1014200043F400736360BCE80F002CAF0FC79CE867
:101430000F0087E80F0000F09DF904F584788346DB
:101440002946404604F58677FFF7E6FC2CA9384686
:10145000FFF7E2FC584600F091F9654A2265012346
:1014600063656169C90104D440F202603DB0BDE822
:10147000F08FCDE9022300F07DF905F1200B0190FA
:1014800059464046FFF7C8FC2CA93846FFF7C4FC74
:10149000019800F073F9039B029A22656365636902
:1014A000DB01E1D5202EA8BF20262022494634A802
:1014B00001F00EFF701ED44620F003033CA9403318
:1014C0000B441CF8012B00F00301C9008A4053F8BB
:1014D000601C0A4343F8602CACEB0A039E4200F107
:1014E000FF30E9DC00F046F934A906464046FFF734
:1014F00093FC304600F042F93E4B236500F03AF988
:1015000004F58076814634A93046FFF773FC4846DF
:1015100000F034F92CAA04AB59462046FFF78EFCA4
:1015200000F028F904F58879824604A904F5827050
:10153000FFF772FC34A94846FFF76EFC294638468F
:10154000FFF76AFC504600F019F92B4B236503F1B5
:10155000FA43A3F50063636500F00CF934A98246F1
:101560004846FFF747FC04A93046FFF743FC5046C6
:1015700000F004F90CAB34AA20492046FFF7BCFD6B
:1015800024AB04AA00992046FFF7B6FD0CAA114629
:101590002046FFF75BFD24AB19460CAA2046FFF757
:1015A00095FC24AA11462046FFF750FD00F0E2F812
:1015B0000C210646204600F0E4F824A94046FFF737
:1015C0002BFC29463846FFF727FC304600F0D6F8BA
:1015D0000B4B23650B4B6365636913F0807F40F20F
:1015E000046018BF002041E740F201603EE700BF01
:1015F0003035DA1030D00C0130E11C848833000023
:101600003035DA1439380100683300001FB5124B49
:101610001A6842F480121A60D3F8C02042F0010226
:10162000C3F8C020FFF72CF94FF47A23B0FBF3F096
:101630000A4B0D2218600021684601F049FE012383
:101640008DF8003069460A2305488DF8023000F015
:10165000F5F905B05DF804FB00400E4044010020A0
:10166000008001400C4A0D4B10B5546A1B68A4B2AF
:1016700013FB00400A4B80B21880A042094B2CBFDC
:10168000002401241C70134611B15A6A8242FCD115
:1016900001225A619A6110BD00800140440100207E
:1016A00040010020420100200A4B1A780A4B22B167
:1016B000D86810F0010003D17047DA68D20707D468
:1016C000586A064B1B88984234BF0020012070479F
:1016D00001207047420100200080014040010020AD
:1016E000044BD3F84421D20703D4D3F8402110424D
:1016F000FBD1704700400E40C0F30322013A38B5D9
:101700000546092A13D8DFE802F023131212051642
:1017100019121C20104C0020C5F3043508B1FFF746
:10172000DFFF04F1047405EBC404A400216038BD9C
:1017300000200A4CF0E70120094CEDE71020094C8D
:10174000EAE74FF48030084CE6E70020074CE3E777
:101750000020074CE0E700BFB0400E40C0400E4004
:10176000E0400E40E8400E40F0400E4050410E4038
:1017700000400E40EFF3108072B6704700B962B6B9
:1017800070470E2910B543680DD801228A4047F2F0
:10179000E004224223F01F0306D140F61F742242C8
:1017A00001D01943416010BD41F01001F9E700007C
:1017B000F0B54AB130261E4C012546438D403444D5
:1017C0000BB304F1C06425603024444304F1804429
:1017D000072904F5204419D865688E000F27B74003
:1017E00025EA070502FA06F63543656052B901227B
:1017F00002FA01F1302250430D4A0244A3B102F132
:10180000C0621160F0BD04F18064DCE701F1804545
:10181000083DA668AD000F27AF4026EA070602FA8A
:1018200005F53543A560E1E702F18062E9E700BF15
:101830000CA00040094A0A4BD969C90705D512B95D
:101840006FF002007047013AF6E7002AF8D0012253
:101850001861DA60D86940F380007047809698007C
:1018600000000E4070B509B9002070BDC2B9244B0C
:10187000082550F822409C61224CDD600132DE696F
:10188000F60705D514B96FF00200EEE7013CF6E764
:10189000002CF8D0DC69A60720D49142E9D1E3E717
:1018A000EFF3108572B6164B00221026DC69240770
:1018B00017D550F822409C6101329142DE60F5D18B
:1018C00005B962B60E4A0F4B1146D069C40711D54F
:1018D00073B96FF00200CB699B07C6D56FF00100AA
:1018E000C3E7DC6904F01904102C08BFDC60DDE7F5
:1018F000013BEAE7002B0CBF6FF002000020EAE793
:1019000000000E40809698002DE9F0479946214B43
:101910001C6CA4B280460F46002C38D1996841F067
:10192000010199609608BA46B44215D30020D8F850
:1019300000203B689A4208D04046FFF77BFF20B961
:101940004A4601213846FFF78DFF124A936823F07B
:1019500001039360BDE8F08708EB84052846FFF794
:1019600069FF0028F6D1C5F30A05C5F50065AD0885
:10197000331B9D4228BF1D464A4629465046FFF765
:1019800071FF0028D3D12C440AEB850ACCE76FF015
:101990000100DFE700000E40174B1A6C92B202BB49
:1019A0009A6842F001029A6001221861DA60DA69ED
:1019B000520706D59A6822F001029A604FF0FF3074
:1019C000704702220D49DA601A46D869C00700D56F
:1019D00051B9D069936810F0020023F001039360BD
:1019E00004D06FF0010070470139EEE711B96FF0D4
:1019F00002007047704700BF00000E4080969800BC
:101A00000023FFF781BF00000B4A536911699B0057
:101A100003F03C03C1F381110B438370136903F09E
:101A20003F0343709369D26903F0F003C2F30312DA
:101A300013430370704700BFD0FF0FE02DE9F04F54
:101A40000C780CB902234360002343624B78CA78B8
:101A500091F802B08D7A91F808A091F8069091F86B
:101A60000780002B4B7A4FEA024214BF4FF0400E22
:101A70004FF0000E42EA0B62002B14BF80230023BC
:101A800042EA0A02002DCD7A42EA892214BF4FF0C1
:101A9000200C4FF0000C42EA0822002D0D7B42EA98
:101AA0000E0214BF102700271343002D0D7949792A
:101AB00043EA0C0314BF082600263B43002D14BF45
:101AC0004FF4005500253343002914BF4FF08051D7
:101AD00000212B430B4303600CB101234360BDE89D
:101AE000F08F00001C4AD2F8B03043F0040313B565
:101AF000C2F8B0300621012304220520FFF758FE6A
:101B000000230093009B632B20DD0123022206218A
:101B10000520FFF74DFE00230193019BB3F5FA7FEB
:101B200017DB0E4B00221C68062101230520FFF75E
:101B30003FFE094AD2F8B03014F1FF3023F004031D
:101B400018BF0120C2F8B03002B010BD009B0133B5
:101B5000D7E7019B0133DFE700400E409821144294
:101B600030B50568046802680368880785B011D03D
:101B7000CDE90054CDE902236C460B4604AD224664
:101B800003CAAA4218605960144603F10803F6D14B
:101B900005B030BDC1E90054C1E90223F8E77FB5C3
:101BA0008B07024615D00B466D4601F110061868EA
:101BB00059682C4603C40833B3422546F7D1009B2D
:101BC0001360019B1360029B1360039B136004B0BE
:101BD00070BDD1E90054D1E90203156014601060B2
:101BE000F4E700F10473102A30B54FEA43131AD119
:101BF00001221A60D1E90054D1E90223C0F8105142
:101C0000C0F81041C0F81021C0F81031D1E90454D7
:101C1000D1E90623C0F81051C0F81041C0F81021D6
:101C2000C0F8103130BD00221A60D1E90054D1E96A
:101C300002234562446242624362F3E718B1242200
:101C4000002101F045BB704770B50E4615460446AD
:101C500090B189B12422002101F03AFB802D02D0FD
:101C6000B5F5807F0BD12046EA0840F8045B314689
:101C700001F023FB002070BD6FF02100FBE76FF047
:101C80002200F8E72DE9F04F814685B088469B4653
:101C90001646F2B11768B9F1000F00F0B5800F9B3E
:101CA000002B00F0B180109B002B00F0AD80BBF149
:101CB000000F00F0A9800E9B002B00F0A580D9F842
:101CC0000030802B03D0B3F5807F40F0A08000244B
:101CD0000DE01746DFE7A7B10F9B0E9A1B5DD25DA3
:101CE0005340109A0137135507F00F07013444454C
:101CF000F1D3002E00F08E803760002005B0BDE8E3
:101D0000F08F00F089F84FF44043476003600546C8
:101D1000FFF730FDD9F80030802B824614BF102227
:101D2000082209F104012846FFF75BFF05F184034F
:101D3000184659460093FFF732FF5046A8EB040AB5
:101D40002AF00F0AFFF71AFDA244032354451AD1C3
:101D50000F9B03EB040A109B1C440F9B434401930D
:101D60000323019A92452DD1FFF704FD59460446FD
:101D70000098FFF7F5FE2046FFF700FD284600F02B
:101D800055F84446B3E74822AA600522AA602A69AA
:101D90009107FCD4AB600293FFF7ECFC0F9B019022
:101DA000191905F1A000FFF7FAFE109B05F180005C
:101DB0001919FFF7D5FE019A1046FFF7DFFC103422
:101DC000029BC3E7AFB94822AA600522AA602A692C
:101DD0009207FCD4AB600393FFF7CCFC0E99029002
:101DE00005F18000FFF7BCFE029A1046FFF7C6FC23
:101DF000039B0E991AF8012BC95D01374A4004F87C
:101E0000012B07F00F07ACE76FF0210076E76FF0CA
:101E1000220073E7304671E7024B034801221A6043
:101E2000704700BF0416C84300000F40054B98429E
:101E300006D103F16E7303F58B33043300221A606D
:101E4000704700BF00000F402DE9F04F99B00746E2
:101E50000E4690461D46FFF7DFFF04462FB1022FC6
:101E600000F2E5800423036000E007600023636064
:101E7000E364626822F4406262602363636356F83D
:101E8000232012BA4DF823200133082BF7D1FFF796
:101E900071FC009BC4F80431019BC4F80431029B1F
:101EA000C4F80431039BC4F80431049BC4F8043122
:101EB000059BC4F80431069BC4F80431079BC4F8A1
:101EC0000431FFF75BFCDFF874A15A4B2365002651
:101ED00008F00309229B9E4239D1AB0700F08A80AB
:101EE000FFF748FCD4F80061D4F80011D4F80021C1
:101EF000D4F80031CDE90061CDE90223D4F80061C6
:101F0000D4F80011D4F80021D4F80031CDE90461EF
:101F1000CDE906232E46FFF731FC08AF6B461A4683
:101F200003CABA4230607160134606F10806F6D162
:101F30002046FFF77BFF2B1F1C3553F8042F12BAE6
:101F4000AB421A60F9D1002019B0BDE8F08F08EB60
:101F5000861BB9F1000F0FD008AA0BF1400CDBF87B
:101F60000000DBF80410134603C30BF1080BE34534
:101F70001A46F4D10DF1200BFFF7FCFBDBE9013130
:101F8000DBF80C20DBF80070C4F8A471C4F8A431AD
:101F9000C4F8A411C4F8A421DBE90531DBF81C2046
:101FA000DBF81070C4F8A471C4F8A431C4F8A4110B
:101FB000C4F8A421DBE90931DBF82C20DBF8207020
:101FC000C4F8A471C4F8A431C4F8A411C4F8A421BD
:101FD000DBE90CC1DBE90E23C4F8A4C1C4F8A411E9
:101FE000C4F8A421C4F8A431FFF7C8FB0136C4F833
:101FF00050A06FE7FFF7BEFBD4F80061D4F80011E2
:10200000D4F80021D4F80031C5E90061C5E9022304
:10201000D4F80061D4F80011D4F80021D4F80031CC
:10202000C5E90461C5E90623FFF7A8FB80E702487C
:102030008AE700BF888AC80180AFFFFF070D8101D2
:102040002DE9F3470228144680460E461F46DDE977
:102050000A924ED81CB9002002B0BDE8F087136880
:102060003F2B42D8516809B1002F3ED1B8F1010F82
:102070003DD0224D2249B8F1020F18BF0D4603F0A2
:102080003F00E318136022BF53680133536090B3DD
:10209000C0F1400A544522D331465246484401F02B
:1020A0000CF9012300934A463B4629464046A4EBDF
:1020B0000A04FFF7C9FE3F2C56440DD93D46A3093B
:1020C000009332463B4629464046FFF7BDFE24F0CA
:1020D0003F031E4404F03F04002CBCD000202246E5
:1020E0003146484401F0E9F8B5E73D46C7E7054DFC
:1020F000C5E70548B0E73F2CF1D9E0E70834000018
:10210000C8330000E833000080AFFFFF2DE9F0473F
:10211000064686B0884691461D46042855D8DFE815
:1021200000F05203070950001C240220402304E061
:102130002024FAE73024042080238700F91E02AA15
:10214000AE46114407EB050A4FF0000C5EF8042B75
:102150000CEBC20C81F802C04FEA521C81F801C09E
:102160004FEA523C81F800C0F2454FEA525C01F858
:1021700001CC4FEA527CA1F10401E7D129685A1E33
:102180000A40D91B914296BFA3EB40038A1AC2EBC7
:1021900043020F494346CDE900953046FFF750FF13
:1021A00043463A4602A9CDE900953046FFF748FF7D
:1021B000224641460E9801F080F8002006B0BDE8A6
:1021C000F0874024B7E71424AFE70248F6E700BFE2
:1021D0002834000080AFFFFF18B16C22002101F00D
:1021E00077B8704707B5034690F86800002803F1F8
:1021F0002000019003F12800009014BF012002206C
:10220000FFF71EFF03B05DF804FB07B590F86830D8
:102210000091002B00F1280200F12003014614BFB9
:1022200001200220FFF772FF03B05DF804FB0023DA
:102230009942D4BF00210121C0E9083380F8681019
:102240007047FFF7CFBFFFF7E0BF002070470020C7
:102250007047002070470020704740F628031B6835
:10226000186970472823044A1B68196891420CBFFB
:1022700018690020704700BFAD1007B001207047FB
:10228000004870474A43E00F004870476A43E00F38
:10229000004870478642E00F70B501213848394D3B
:1022A000FFF72AFA01213848FFF726FA01213748BB
:1022B000FFF722FA01213648FFF71EFA40F6AA631B
:1022C0000024EB60334A2C6041F205036C666B60BE
:1022D000AC606C61EC64AA646C67AC67EC676B60C3
:1022E0002B682B602C4B2D4AD3F894102C4B0129D2
:1022F00018BF134603F5E1434FF4E1125B01B3FB52
:10230000F2F3203BDB006B610422012321462046CF
:10231000FFF74EFA01231A46194620460326FFF717
:1023200047FAAC67012304226E6705212046FFF7B8
:102330003FFA0523EB601B4B4FF0E0621A604FF44D
:1023400040221C62DC625C63DC66C3F88020164AB3
:10235000C3F88840C3F88440C3F89820134AC3F8F0
:10236000B020134AC3F8B840C3F8B4401660012245
:10237000DA6303F1C063083302221A6070BD00BF44
:10238000404105000000014000250A0000450A0008
:1023900000220400F9FF010000400E4000F0490255
:1023A000C0EA210100200E406834000001000C004A
:1023B00028200E44084B986A10F0020005D0074A06
:1023C000022313609360012070471B6A9B07FBD4B4
:1023D000034B02221A60F6E700200E4020200E4434
:1023E00028200E447F2938B50546144624D8FFF727
:1023F000E1FFA8B941F2062038BDE85C98540133EA
:102400008B42FAD10E490888013B63F30E100D4B45
:1024100008800222C3F8C810DA6324B90020EBE771
:102420000023094AECE7FFF7C5FF0028FBD0074A65
:1024300013699B06FCD5F1E741F20310DCE700BF0E
:102440000C01002000200E404C0300200000014041
:102450000E4BD3F8940040F2011398420FD040F293
:10246000022398420DD00A4BC01A0A4B1B688342C4
:102470000AD02ABFC3F50073C01AC01870470020E5
:10248000F3E74FF48070F0E70020704700200E4023
:1024900048010020480300202DE9F843089F044626
:1024A0000D461646FBB9FFF7D3FF2149DFF888E058
:1024B0000B68204FA84228BF2846224604EB000C98
:1024C0004FF0010800244FF0020962451DD104B10C
:1024D0000B6006B1306041F20423A84234BF1846B5
:1024E0000020BDE8F8832FB1FFF790F800213846AF
:1024F000FFF7B8F8FFF7ACFFA842D4D2002FF9D00D
:10250000FFF7D2F80028F5D0CDE71EF8034002F817
:10251000014B0133B3F5007F04D1C7F800900023CD
:102520000124D2E7B3F5807F08BFC7F80080F7E742
:102530004803002008200E464801002070B5D1E96C
:102540000152AA4205D290F840302B449B1A402BEE
:1025500010D9002012E00A6890F84040D65C90F84C
:102560004120224402F03F020133013486548B6043
:1025700080F840408B689D42EDD8012070BD2DE968
:10258000F8431746D1E90125521B90F840509DF8B9
:1025900020909DF824802A44934204460E4657D941
:1025A000FFF7CCFF00285DD1122384F8463041F2BA
:1025B0000200BDE8F88394F84120A25C7A5594F8B3
:1025C0004120013202F03F0284F8412094F840207B
:1025D000013A84F84020013594F8402012B1AB4212
:1025E000E9D11D46D6E901128A4201D2AB4231D867
:1025F000AB42D9D1D4F8882029463846FEF75AFB99
:10260000C4F88800B9F1000F04D02A463946E06CBE
:10261000FEF7E0FBB8F1000F08D094F843302BB17F
:102620002B463A463946A06CFEF782FB94F84330BD
:1026300043B1E36DA26D2B449342E36524BF0023B5
:1026400084F84330636D1D44656541F20300B0E7D3
:102650000025C1E731688A5C7A55B2680132B26000
:102660000135BFE70020A4E77FB50023CDE90033A3
:10267000082315460DEB03020446FFF780FF41F2E5
:1026800003039842064626D194F8433063B10822EA
:102690000DEB0201E06CFEF79DFB08230DEB03023E
:1026A0001146A06CFEF744FB039A6A6094F843203D
:1026B000029B2B605AB9094A934208D0084A9342B8
:1026C00005D008220DEB0201E06CFEF783FB6B687E
:1026D000236500236365304604B070BDF70A0AF72E
:1026E000FC0404FC2DE9F843044658680D461646E0
:1026F0001F46002843D08B0743D1FFF7AEFD216E64
:1027000000F1040C06EB0109CC451DD800F11C02B8
:10271000914219D28C45634638BF0B46591AA3EB38
:102720000C00914594BFC3EB0909C3EB020905EB0B
:10273000010868304A464146204400F0BEFD4A4642
:10274000FF21404600F0C4FDFFF78CFD226E031D03
:1027500093420AD3B1180830814206D39B1AEA5833
:10276000C4F880204FF0FF32EA50D7E900383246F3
:10277000206E2946C047236E1E4426660020BDE811
:10278000F88341F20200FAE7F8B504464FF0FF364D
:10279000154603F02003002280F84620A0F84020D0
:1027A00080F8432080F8452080F84420C0E91822B2
:1027B0000F4680F84230C0F888601822FF21683048
:1027C00000F086FDC4F88060C4F88460C4E9127526
:1027D000FFF741FD18B117B941F20B00F8BDFFF743
:1027E00038FD30B1002DF7D0E06CFEF7E9FA00209B
:1027F000F4E7002DF8D12846F0E700002DE9F04F6E
:102800009BB0CDE907230393249EDFF8C8B30023D0
:102810000446894609939846099A039B9A4257D2DF
:1028200094F84630122BF8D8DFE813F05B00700004
:10283000540098009E013B003200BB013B00B501F3
:102840003B00B501930228031300FB02FF0228029C
:1028500028030027636D0F2B41D801251023019712
:1028600000950AAA07A92046FFF789FE41F2030353
:10287000984278D1D4F848A0FFF70AFD8023CDE92B
:1028800000030BAA2B4602215046FEF72FFAE1E780
:102890000125D4E914329A42C0F0178184F84650D9
:1028A000BAE70DF1280AD4E91452AA42099916D2BE
:1028B000089BAD1A94F840205B1A032D134440F294
:1028C0008B81032B00F2AF8107A92046FFF736FE6C
:1028D000002048E00025636D072B40F2BF800123F4
:1028E00011E005AA07A92046FFF7BEFE41F2030347
:1028F000984238D1069B236500236365059AAB4B4C
:102900009A422BD1022384F8463085E705AA07A90D
:102910002046FFF7A9FE41F20303984223D194F821
:102920004420059B22B1A24A934217D10C23EAE727
:1029300094F84220D7074BD594F84320002A40F062
:10294000A0825B455FD020D89A4A934206D00DD82A
:10295000964A934202D0984A93420ED1122384F8A9
:10296000463041F201001BB0BDE8F08F934A93421C
:10297000F4D002F1013293421FD0122384F8463082
:1029800005A8FFF762FCD8B1EBE789498B421AD062
:1029900007D88B498B4209D08A4A9342EDD10E2346
:1029A000B1E7894A9342D9D0884AD5E70F2384F802
:1029B0004630236DC4E916322EE7122384F84630E0
:1029C00041F20800CFE7FFF744FC0028AED0C5E78E
:1029D0005B4514D000F25982764A934207D0774A79
:1029E000934206D0744A93420FD106238BE7042307
:1029F00089E7072387E7092385E70B2383E794F813
:102A00004330002BAAD110237DE705A8FFF71DFC5A
:102A1000D0B11123059884F84630C4F88C00FFF734
:102A200016FC94F842309D0680467FF5F5AE0028EE
:102A30003FF4F2AE4368002B3FF4EEAE20469847D9
:102A400000283FF4E9AE8CE7122384F8463094F86E
:102A50004330002BB4D041F2040084E701230093FB
:102A6000019508230AAA07A92046FFF788FD41F22D
:102A7000030398427FF477AF0A9B03F07F43B3F1DF
:102A8000407F05D0122384F8463041F209006AE7FE
:102A90000B9B0493D8070ED594F8423043F0010302
:102AA00084F84230FFF7D5FB00283FF414AF049BB5
:102AB000D90504D50FE7FFF7CEFB0028F2D012238B
:102AC00084F8463041F20A004DE7CDE900550AAAE4
:102AD00007A92046FFF753FD41F2030398427FF414
:102AE00042AF09F1080C0AAF63460DF1400E3A46B9
:102AF00003CA724518605960174603F10803F6D1FE
:102B00001068186089F801506046FFF7B7FB00288D
:102B10007FF4BFAE41F20C0025E701250823CDE983
:102B200000550AAA07A92046FFF729FD41F2030331
:102B300098427FF418AF2822254812680A9B116832
:102B4000C9F8043081420B9B89F80050049303D1EB
:102B5000D2689A427FF402AF052384F846300123FD
:102B600084F8453000236366636D072BD5D953E69F
:102B70000423CDE900550AAA07A92046FFF7FFFC68
:102B800041F2030398427FF4EEAE226D0A9B049358
:102B9000042A01D923660125636D032BE8D90A2392
:102BA000B1E6002363660823ADE600BFEB17A6037A
:102BB000FC0404FCF50909F5F40A0AF4F60808F621
:102BC000F90707F9FA0606FAFD0303FDFE0101FE07
:102BD000AD1007B0F70A0AF79D423FF675AE9D4269
:102BE00028BF1D46032D88BF25F003050123CDE92D
:102BF000003352462B4607A92046FFF7C0FC41F29E
:102C0000030398427FF4AFAE94F84630082B13D1FB
:102C1000B7688FB13368606E2A465146B847636E15
:102C20001D4465663FE6402D28BF4025D7E74FF09D
:102C3000FF320AF805200135032DF8D90A2B06D1F9
:102C400033462A4651462046FFF74CFD2BE6052B1E
:102C50007FF429AEF368002B3FF425AE626E042AA0
:102C60000AD85319062B07D90BAB9B1A1A68C4F85C
:102C700084204FF0FF321A60F768CBE794F84230B7
:102C80009A0607D5D4F88C00FFF7E1FA80460028B1
:102C90003FF467AE01273FE0002B58D0B8F1000F9A
:102CA00055D0D8F81030002B51D020469847DDE998
:102CB0000853ED1A94F840302B4498423FF604AE86
:102CC000D4E91452AD1A402D28BF40259D4228BF9B
:102CD0001D462B46CDE900770AAA07A92046FFF733
:102CE0004EFC41F2030398427FF43DAE94F842302B
:102CF0009B0611D5B8F1000F3FF433AED8F808A009
:102D0000BAF1000F3FF42DAE33462A460AA92046F9
:102D1000D04700287FF427AED4E9142194F842303C
:102D2000914203F02003B7D3002B3FF4D8ADB8F1A4
:102D3000000F3FF4D4ADD8F80C30002B3FF4CFADEA
:102D400031462046984700283FF4C9AD0BE60120E4
:102D5000ADE70023CDE900330AAA042307A92046E2
:102D6000FFF70DFC41F2030398427FF4FCADD4F869
:102D70008820514B9A4205D0122384F8463041F204
:102D80000500F0E5FFF765FA10B9012389F8033073
:102D900099F80330002B3DD094F845303BB1F568ED
:102DA0002DB10422336804F184011046A847236E34
:102DB00083B3736873B31AAF4FF0FF3347F8583DCE
:102DC00004F1800804224146384600F067FA40B119
:102DD000FFF748FA28B10422D6E9003541461044ED
:102DE000A84704F1680504222946384600F056FA3F
:102DF00080B17768FFF731FA3368142204F16C016F
:102E00000830B8477768FFF728FA04223368294664
:102E10001044B847012389F802300D2384F8463066
:102E200056E5012384F843306DE594F84450002DB5
:102E30007FF455AD4023CDE900550AAA07A92046E5
:102E4000FFF79DFB41F2030398427FF48CADE06CE9
:102E5000FDF7C2FF12AA0AA9E06CFDF77BFF38B1AB
:102E6000122389F8035041F2060084F846307AE5CF
:102E7000012389F8033084F8443030E541F207003B
:102E800071E55B457FF4A6AD68E50C4A93423FF4DB
:102E9000B4AD0B4A93423FF4AEAD0A4A93427FF47D
:102EA000B4ADFFF7D6F900287FF458AD94F843305D
:102EB000002B3FF43BAD51E5E320BBDEFD0303FDFA
:102EC000FE0101FEFC0404FCF0B51E4B446BA1B0F6
:102ED00001AA054603F1100C1746186859681646F2
:102EE00003C6083363453246F7D1102239462046DF
:102EF00000F0D4F918B96369012B1FD1A46940F619
:102F000028031B681B69A3421AD8AC4218D3B4F536
:102F1000802F15D805A8FDF753FF621B294605A889
:102F2000FDF758FF05A8FDF757FF04F120022146E1
:102F300005A8FDF70FFFB0FA80F0400921B0F0BD01
:102F40000020FBE7A834000040F628032DE9F041FB
:102F50001B6816461A698242054688461DD85B6979
:102F60008719BB4219D3C0F30A030BB900F053F918
:102F700005F5006424F4FF6424F00704A74206D892
:102F8000324641462846BDE8F04100F04FB92046A0
:102F900000F041F904F50064F0E7BDE8F0810000BD
:102FA00028232DE9F0411B68884616461968164A01
:102FB000914227D11D6940F6280305441B685A69D0
:102FC000AF19BA421ED310B9186900F024F9C5F33D
:102FD0000A0313B9284600F01EF905F5006424F42D
:102FE000FF6424F00704A74206D83246414628462B
:102FF000BDE8F04100F01AB9204600F00CF904F5E4
:103000000064F0E7BDE8F081AD1007B0F0B5294BE2
:1030100085B06A46044603F11007164618685968D9
:10302000154603C50833BB422A46F7D1236803F18E
:103030006043B3F5F84F38D840F6280362681B6840
:103040001B69934231D8B2F5802F2ED8656B40337F
:10305000AB4202D8B5F5802F06D9FDF729FE80F0E6
:103060000100C0B205B0F0BDFDF722FE28B1204638
:1030700005B0BDE8F040FFF727BF102231462846D3
:1030800000F00CF998B96B698BB1022BEFD1AB69E9
:10309000C4F1040119444FF0FF322046FDF70AFE47
:1030A000054BC31A58425841DCE70020DAE70120FB
:1030B000D8E700BFA8340000E320BBDEB1F5BC7F39
:1030C00010B504460FD34FF4BC72002100F000F994
:1030D00004F1FC0204F1B40104F124000023BDE872
:1030E0001040FFF751BB40F2052010BD13B5044658
:1030F000009101462430FFF781FBC4F8740118B138
:1031000041F20703984209D1A3784BB1E27840F22B
:10311000032040F20223002A08BF184602B010BD67
:1031200040F20120FAE74FF000534FF20F021880EF
:103130005A8070474FF000534CF23C325A8070472F
:103140004FF000534FF20F025A800A4A188013685A
:1031500023F4E06343F480631360BFF34F8F0649A9
:10316000064BCA6802F4E0621343CB60BFF34F8F93
:1031700000BFFDE700500E4000ED00E00400FA053E
:103180004FF000534FF20F015A888A4201D118883C
:1031900070473AB91B88012B40F2022018BF4FF448
:1031A000007070474FF4007070474FF0005318885C
:1031B00070470000044B41F671321A649A6822F09D
:1031C00001029A60704700BF00000E40034B9A68EE
:1031D00022F001029A6000221A64704700000E403B
:1031E00007B503469B0753BF6FEA01414FF6FF73D4
:1031F00043EA01416FEA1141019120F00300FFF71A
:10320000D9FF04220DEB0201FEF7FAFBFFF7DEFF08
:1032100003B05DF804FB08B5FFF7CCFFFEF7BCFB7D
:10322000FFF7D4FFB0FA80F0400908BDF8B540EAD6
:1032300002031446DA0705460E4601D50020F8BD04
:103240000CB90120FBE7830725D50988FFF7C8FFE4
:103250000028F3D1023C032C05F1020506F1020619
:103260000FD924F00307FFF7A5FF3A463146284659
:10327000FEF7C6FBFFF7AAFF0028DFD13E443D441E
:10328000E41B002CDDD031882846FFF7A9FFB0FAF7
:1032900080F04009D3E7032CE3D8F4E730B50024ED
:1032A000A24201D1002007E0035D01340D1915F899
:1032B000015CAB42F4D0581B30BD10B5431E0A442C
:1032C000914200D110BD11F8014B03F8014FF7E70F
:1032D00002440346934200D1704703F8011BF9E70B
:1032E000F8B500BFF8BC08BC9E467047F8B500BFF3
:1032F000F8BC08BC9E46704700000000492F000043
:1033000000000000A12F000007B0CD5E010000000A
:1033100000000701E42C0000004000000000040051
:10332000F0001000590B00005D0B00000D30000094
:10333000BD300000ED300000000000002000000063
:1033400000010000050C0000FFFFFFFFFFFFFFFF73
:10335000FFFFFFFF00000000000000000000000071
:1033600001000000FFFFFFFF512563FCC2CAB9F353
:10337000849E17A7ADFAE6BCFFFFFFFFFFFFFFFF2C
:1033800000000000FFFFFFFF96C298D84539A1F466
:10339000A033EB2D817D0377F240A463E5E6BCF812
:1033A00047422CE1F2D1176BF551BF376840B6CBDD
:1033B000CE5E316B5733CE2B169E0F7C4AEBE78ED9
:1033C0009B7F1AFEE242E34F67452301EFCDAB89B5
:1033D00098BADCFE10325476C3D2E1F0000000004F
:1033E0000000000000000000C1059ED8367CD50713
:1033F0003070DD17F70E5939FFC00B3168581511C1
:1034000064F98FA7BEFA4FA46A09E667BB67AE8569
:103410003C6EF372A54FF53A510E527F9B05688CB6
:103420001F83D9AB5BE0CD198000000000000000D5
:10343000000000000000000000000000000000008C
:10344000000000000000000000000000000000007C
:10345000000000000000000000000000000000006C
:103460000000000000000000F00F10031C000140ED
:1034700048010020130000000900000000010000C6
:103480000202000013000000F00F10031C000140B6
:1034900048020020130000000900000000020000A4
:1034A00001010000D3FFFFFF13B779FAC925DDB78B
:0C34B000ADF3CFE0F1B614B8000000004E
:1034BC0000F04902C0EA210100800000F07F1030CA
:1034CC004C0300203400014000000000650800009F
:0434DC0041080000A3
:0400000300000B11DD
:00000001FF
